{
  "contractName": "Farm",
  "abi": [
    {
      "constant": false,
      "inputs": [
        {
          "name": "_adhaar",
          "type": "uint256"
        },
        {
          "name": "_soilname",
          "type": "string"
        },
        {
          "name": "_soilgrade",
          "type": "uint256"
        },
        {
          "name": "_fname",
          "type": "string"
        },
        {
          "name": "_fergrade",
          "type": "uint256"
        },
        {
          "name": "_FoodA",
          "type": "uint256"
        },
        {
          "name": "_fgrade",
          "type": "uint256"
        }
      ],
      "name": "setFarmer",
      "outputs": [],
      "payable": false,
      "stateMutability": "nonpayable",
      "type": "function",
      "signature": "0x33e9bc86"
    },
    {
      "constant": false,
      "inputs": [
        {
          "name": "_adhaar",
          "type": "uint256"
        },
        {
          "name": "_farmeradhaar",
          "type": "uint256"
        },
        {
          "name": "_branchstart",
          "type": "uint256"
        },
        {
          "name": "_branchend",
          "type": "uint256"
        }
      ],
      "name": "initMandi",
      "outputs": [],
      "payable": false,
      "stateMutability": "nonpayable",
      "type": "function",
      "signature": "0x07a17438"
    },
    {
      "constant": false,
      "inputs": [
        {
          "name": "_adhaar",
          "type": "uint256"
        },
        {
          "name": "_fgrade",
          "type": "uint256"
        },
        {
          "name": "_ArrivalTime",
          "type": "string"
        }
      ],
      "name": "setMandi",
      "outputs": [],
      "payable": false,
      "stateMutability": "nonpayable",
      "type": "function",
      "signature": "0x7f81b537"
    },
    {
      "constant": false,
      "inputs": [
        {
          "name": "_adhaar",
          "type": "uint256"
        },
        {
          "name": "_farmeradhaar",
          "type": "uint256"
        },
        {
          "name": "_branchstart",
          "type": "uint256"
        },
        {
          "name": "_branchend",
          "type": "uint256"
        }
      ],
      "name": "initMarket",
      "outputs": [],
      "payable": false,
      "stateMutability": "nonpayable",
      "type": "function",
      "signature": "0x903593ff"
    },
    {
      "constant": true,
      "inputs": [
        {
          "name": "_branch",
          "type": "uint256"
        }
      ],
      "name": "getFarmer",
      "outputs": [
        {
          "name": "",
          "type": "string"
        },
        {
          "name": "",
          "type": "uint256"
        },
        {
          "name": "",
          "type": "string"
        },
        {
          "name": "",
          "type": "uint256"
        },
        {
          "name": "",
          "type": "uint256"
        }
      ],
      "payable": false,
      "stateMutability": "view",
      "type": "function",
      "signature": "0xad0caa76"
    }
  ],
  "bytecode": "0x608060405260008055600060015533606660006101000a81548173ffffffffffffffffffffffffffffffffffffffff021916908373ffffffffffffffffffffffffffffffffffffffff16021790555034801561005a57600080fd5b50610ab28061006a6000396000f3fe60806040526004361061006d576000357c0100000000000000000000000000000000000000000000000000000000900463ffffffff16806307a174381461007257806333e9bc86146100cb5780637f81b5371461025c578063903593ff14610338578063ad0caa7614610391575b600080fd5b34801561007e57600080fd5b506100c96004803603608081101561009557600080fd5b81019080803590602001909291908035906020019092919080359060200190929190803590602001909291905050506104c6565b005b3480156100d757600080fd5b5061025a600480360360e08110156100ee57600080fd5b81019080803590602001909291908035906020019064010000000081111561011557600080fd5b82018360208201111561012757600080fd5b8035906020019184600183028401116401000000008311171561014957600080fd5b91908080601f016020809104026020016040519081016040528093929190818152602001838380828437600081840152601f19601f82011690508083019250505050505050919291929080359060200190929190803590602001906401000000008111156101b657600080fd5b8201836020820111156101c857600080fd5b803590602001918460018302840111640100000000831117156101ea57600080fd5b91908080601f016020809104026020016040519081016040528093929190818152602001838380828437600081840152601f19601f820116905080830192505050505050509192919290803590602001909291908035906020019092919080359060200190929190505050610579565b005b34801561026857600080fd5b506103366004803603606081101561027f57600080fd5b810190808035906020019092919080359060200190929190803590602001906401000000008111156102b057600080fd5b8201836020820111156102c257600080fd5b803590602001918460018302840111640100000000831117156102e457600080fd5b91908080601f016020809104026020016040519081016040528093929190818152602001838380828437600081840152601f19601f8201169050808301925050505050505091929192905050506106b2565b005b34801561034457600080fd5b5061038f6004803603608081101561035b57600080fd5b81019080803590602001909291908035906020019092919080359060200190929190803590602001909291905050506107a2565b005b34801561039d57600080fd5b506103ca600480360360208110156103b457600080fd5b810190808035906020019092919050505061083a565b604051808060200186815260200180602001858152602001848152602001838103835288818151815260200191508051906020019080838360005b83811015610420578082015181840152602081019050610405565b50505050905090810190601f16801561044d5780820380516001836020036101000a031916815260200191505b50838103825286818151815260200191508051906020019080838360005b8381101561048657808201518184015260208101905061046b565b50505050905090810190601f1680156104b35780820380516001836020036101000a031916815260200191505b5097505050505050505060405180910390f35b826069600086815260200190815260200160002060010181905550606760008481526020019081526020016000206002015482016069600086815260200190815260200160002060030181905550606760008481526020019081526020016000206002015481016069600086815260200190815260200160002060040181905550606a84908060018154018082558091505090600182039060005260206000200160009091929091909150555050505050565b81606760008981526020019081526020016000206001018190555060015460676000898152602001908152602001600020600201819055506001546000819055505b60015482016000541015610672578060526000546014811015156105db57fe5b01819055508560026000546014811015156105f257fe5b0190805190602001906106069291906109e1565b5084601660005460148110151561061957fe5b018190555083602a60005460148110151561063057fe5b0190805190602001906106449291906109e1565b5082603e60005460148110151561065757fe5b018190555060008081548092919060010191905055506105bb565b8160015401600181905550606887908060018154018082558091505090600182039060005260206000200160009091929091909150555050505050505050565b600080819055505b6014600054101561079d5782606a6000548154811015156106d757fe5b9060005260206000200154141561071457806069600085815260200190815260200160002060020190805190602001906107129291906109e1565b505b60696000848152602001908152602001600020600301546000819055505b6069600084815260200190815260200160002060040154600054101561077f5781605260005460148110151561076457fe5b01819055506000808154809291906001019190505550610732565b601460008190555060008081548092919060010191905055506106ba565b505050565b606760008481526020019081526020016000206002015482016069600086815260200190815260200160002060030181905550606760008481526020019081526020016000206002015481016069600086815260200190815260200160002060040181905550606c84908060018154018082558091505090600182039060005260206000200160009091929091909150555050505050565b60606000606060008060028660148110151561085257fe5b0160168760148110151561086257fe5b0154602a8860148110151561087357fe5b01603e8960148110151561088357fe5b015460528a60148110151561089457fe5b0154848054600181600116156101000203166002900480601f01602080910402602001604051908101604052809291908181526020018280546001816001161561010002031660029004801561092b5780601f106109005761010080835404028352916020019161092b565b820191906000526020600020905b81548152906001019060200180831161090e57829003601f168201915b50505050509450828054600181600116156101000203166002900480601f0160208091040260200160405190810160405280929190818152602001828054600181600116156101000203166002900480156109c75780601f1061099c576101008083540402835291602001916109c7565b820191906000526020600020905b8154815290600101906020018083116109aa57829003601f168201915b505050505092509450945094509450945091939590929450565b828054600181600116156101000203166002900490600052602060002090601f016020900481019282601f10610a2257805160ff1916838001178555610a50565b82800160010185558215610a50579182015b82811115610a4f578251825591602001919060010190610a34565b5b509050610a5d9190610a61565b5090565b610a8391905b80821115610a7f576000816000905550600101610a67565b5090565b9056fea165627a7a72305820bfa02f63185a47e08b00c2dbfc1f81d3f1851063c1225f6643e00373a393485c0029",
  "source": "pragma solidity >=0.4.22 <0.6.0;\ncontract Farm {\n    uint  i=0;\n    uint  batchcount=0;\n    string[20] soilname;\n    uint[20]  soilgrade;\n    string[20]  fname ;\n    uint[20]  fergrade;\n    uint[20]  fgrade;\n\n    struct FarmerIntial {\n        uint adhaar;\n        uint FoodA;\n        uint initial;\n    }\n    \n    \n    struct Mandi{\n        uint adhaar;\n        uint farmeradhaar;\n        string ArrivalTime;\n        uint branchstart;\n        uint branchend;\n    }\n    \n    struct Market{\n        uint adhaar;\n        uint mandiadhaar;\n        string ArrivalTime;\n        uint branchstart;\n        uint branchend;\n    }\n\n    address Farmer=msg.sender;\n    \n    mapping(uint => FarmerIntial) farmers;\n    uint[] FarmerAccts;\n    function setFarmer(uint _adhaar, string memory _soilname, uint _soilgrade, string memory _fname, uint _fergrade, uint _FoodA, uint _fgrade) public {\n        farmers[_adhaar].FoodA=_FoodA;\n        farmers[_adhaar].initial=batchcount;\n        for (i=batchcount; i<_FoodA+batchcount; i++) {\n            fgrade[i]=_fgrade;\n            soilname[i]=_soilname;\n            soilgrade[i]=_soilgrade;\n            fname[i]=_fname;\n            fergrade[i]=_fergrade;\n        }\n        \n        batchcount=batchcount+_FoodA;\n     \n        FarmerAccts.push(_adhaar);\n         \n    }\n    \n    mapping(uint => Mandi) mandi;\n    uint[] AllowedAccts;\n    \n    function initMandi(uint _adhaar, uint _farmeradhaar, uint _branchstart, uint _branchend) public {\n        mandi[_adhaar].farmeradhaar = _farmeradhaar;\n        mandi[_adhaar].branchstart = _branchstart+farmers[_farmeradhaar].initial;\n        mandi[_adhaar].branchend = _branchend+farmers[_farmeradhaar].initial;\n        AllowedAccts.push(_adhaar);\n    }\n    \n    \n    \n    function setMandi(uint _adhaar,uint _fgrade, string memory _ArrivalTime) public {\n        for ( i=0; i<fgrade.length; i++) {\n        \n            if (AllowedAccts[i] == _adhaar)\n            mandi[_adhaar].ArrivalTime=_ArrivalTime;\n            for ( i=mandi[_adhaar].branchstart; i<mandi[_adhaar].branchend; i++) {\n                fgrade[i]=_fgrade;\n            }\n            i = fgrade.length;\n        }\n        \n    }\n    \n    function initMarket(uint _adhaar, uint _farmeradhaar, uint _branchstart, uint _branchend) public {\n        //mandi[_adhaar].mandi = _farmeradhaar;\n        mandi[_adhaar].branchstart = _branchstart+farmers[_farmeradhaar].initial;\n        mandi[_adhaar].branchend = _branchend+farmers[_farmeradhaar].initial;\n        AllowedMarkAccts.push(_adhaar);\n        \n    }\n    \n    mapping(uint => Market) market;\n    uint[] AllowedMarkAccts;\n    \n    \n    \n    \n    function getFarmer(uint _branch) view public returns(string memory, uint, string memory, uint, uint){\n\n        return (soilname[_branch],soilgrade[_branch],fname[_branch],fergrade[_branch],fgrade[_branch]);    \n    }\n    \n}",
  "sourcePath": "/home/sarvesh/Desktop/KYF/contracts/Farm.sol",
  "compiler": {
    "name": "solc",
    "version": "0.5.0+commit.1d4f565a.Emscripten.clang"
  },
  "schemaVersion": "3.0.0",
  "updatedAt": "2019-01-05T06:05:16.809Z",
  "devdoc": {
    "methods": {}
  },
  "userdoc": {
    "methods": {}
  }
}